{
  "_format": "hh-sol-artifact-1",
  "contractName": "LLTToken",
  "sourceName": "contracts/tokens/LLTToken.sol",
  "abi": [
    {
      "inputs": [],
      "stateMutability": "nonpayable",
      "type": "constructor"
    },
    {
      "anonymous": false,
      "inputs": [
        {
          "indexed": false,
          "internalType": "address",
          "name": "previousAdmin",
          "type": "address"
        },
        {
          "indexed": false,
          "internalType": "address",
          "name": "newAdmin",
          "type": "address"
        }
      ],
      "name": "AdminChanged",
      "type": "event"
    },
    {
      "anonymous": false,
      "inputs": [
        {
          "indexed": true,
          "internalType": "address",
          "name": "owner",
          "type": "address"
        },
        {
          "indexed": true,
          "internalType": "address",
          "name": "spender",
          "type": "address"
        },
        {
          "indexed": false,
          "internalType": "uint256",
          "name": "value",
          "type": "uint256"
        }
      ],
      "name": "Approval",
      "type": "event"
    },
    {
      "anonymous": false,
      "inputs": [
        {
          "indexed": true,
          "internalType": "address",
          "name": "beacon",
          "type": "address"
        }
      ],
      "name": "BeaconUpgraded",
      "type": "event"
    },
    {
      "anonymous": false,
      "inputs": [
        {
          "indexed": false,
          "internalType": "uint8",
          "name": "version",
          "type": "uint8"
        }
      ],
      "name": "Initialized",
      "type": "event"
    },
    {
      "anonymous": false,
      "inputs": [
        {
          "indexed": false,
          "internalType": "address",
          "name": "account",
          "type": "address"
        }
      ],
      "name": "Paused",
      "type": "event"
    },
    {
      "anonymous": false,
      "inputs": [
        {
          "indexed": true,
          "internalType": "bytes32",
          "name": "role",
          "type": "bytes32"
        },
        {
          "indexed": true,
          "internalType": "bytes32",
          "name": "previousAdminRole",
          "type": "bytes32"
        },
        {
          "indexed": true,
          "internalType": "bytes32",
          "name": "newAdminRole",
          "type": "bytes32"
        }
      ],
      "name": "RoleAdminChanged",
      "type": "event"
    },
    {
      "anonymous": false,
      "inputs": [
        {
          "indexed": true,
          "internalType": "bytes32",
          "name": "role",
          "type": "bytes32"
        },
        {
          "indexed": true,
          "internalType": "address",
          "name": "account",
          "type": "address"
        },
        {
          "indexed": true,
          "internalType": "address",
          "name": "sender",
          "type": "address"
        }
      ],
      "name": "RoleGranted",
      "type": "event"
    },
    {
      "anonymous": false,
      "inputs": [
        {
          "indexed": true,
          "internalType": "bytes32",
          "name": "role",
          "type": "bytes32"
        },
        {
          "indexed": true,
          "internalType": "address",
          "name": "account",
          "type": "address"
        },
        {
          "indexed": true,
          "internalType": "address",
          "name": "sender",
          "type": "address"
        }
      ],
      "name": "RoleRevoked",
      "type": "event"
    },
    {
      "anonymous": false,
      "inputs": [
        {
          "indexed": true,
          "internalType": "address",
          "name": "from",
          "type": "address"
        },
        {
          "indexed": true,
          "internalType": "address",
          "name": "to",
          "type": "address"
        },
        {
          "indexed": false,
          "internalType": "uint256",
          "name": "value",
          "type": "uint256"
        }
      ],
      "name": "Transfer",
      "type": "event"
    },
    {
      "anonymous": false,
      "inputs": [
        {
          "indexed": false,
          "internalType": "address",
          "name": "account",
          "type": "address"
        }
      ],
      "name": "Unpaused",
      "type": "event"
    },
    {
      "anonymous": false,
      "inputs": [
        {
          "indexed": true,
          "internalType": "address",
          "name": "implementation",
          "type": "address"
        }
      ],
      "name": "Upgraded",
      "type": "event"
    },
    {
      "inputs": [],
      "name": "DEFAULT_ADMIN_ROLE",
      "outputs": [
        {
          "internalType": "bytes32",
          "name": "",
          "type": "bytes32"
        }
      ],
      "stateMutability": "view",
      "type": "function"
    },
    {
      "inputs": [],
      "name": "MINTER_ROLE",
      "outputs": [
        {
          "internalType": "bytes32",
          "name": "",
          "type": "bytes32"
        }
      ],
      "stateMutability": "view",
      "type": "function"
    },
    {
      "inputs": [],
      "name": "PAUSER_ROLE",
      "outputs": [
        {
          "internalType": "bytes32",
          "name": "",
          "type": "bytes32"
        }
      ],
      "stateMutability": "view",
      "type": "function"
    },
    {
      "inputs": [],
      "name": "UPGRADER_ROLE",
      "outputs": [
        {
          "internalType": "bytes32",
          "name": "",
          "type": "bytes32"
        }
      ],
      "stateMutability": "view",
      "type": "function"
    },
    {
      "inputs": [
        {
          "internalType": "address",
          "name": "_address",
          "type": "address"
        }
      ],
      "name": "addMinterRole",
      "outputs": [],
      "stateMutability": "nonpayable",
      "type": "function"
    },
    {
      "inputs": [
        {
          "internalType": "address",
          "name": "owner",
          "type": "address"
        },
        {
          "internalType": "address",
          "name": "spender",
          "type": "address"
        }
      ],
      "name": "allowance",
      "outputs": [
        {
          "internalType": "uint256",
          "name": "",
          "type": "uint256"
        }
      ],
      "stateMutability": "view",
      "type": "function"
    },
    {
      "inputs": [
        {
          "internalType": "address",
          "name": "spender",
          "type": "address"
        },
        {
          "internalType": "uint256",
          "name": "amount",
          "type": "uint256"
        }
      ],
      "name": "approve",
      "outputs": [
        {
          "internalType": "bool",
          "name": "",
          "type": "bool"
        }
      ],
      "stateMutability": "nonpayable",
      "type": "function"
    },
    {
      "inputs": [
        {
          "internalType": "address",
          "name": "account",
          "type": "address"
        }
      ],
      "name": "balanceOf",
      "outputs": [
        {
          "internalType": "uint256",
          "name": "",
          "type": "uint256"
        }
      ],
      "stateMutability": "view",
      "type": "function"
    },
    {
      "inputs": [],
      "name": "decimals",
      "outputs": [
        {
          "internalType": "uint8",
          "name": "",
          "type": "uint8"
        }
      ],
      "stateMutability": "view",
      "type": "function"
    },
    {
      "inputs": [
        {
          "internalType": "address",
          "name": "spender",
          "type": "address"
        },
        {
          "internalType": "uint256",
          "name": "subtractedValue",
          "type": "uint256"
        }
      ],
      "name": "decreaseAllowance",
      "outputs": [
        {
          "internalType": "bool",
          "name": "",
          "type": "bool"
        }
      ],
      "stateMutability": "nonpayable",
      "type": "function"
    },
    {
      "inputs": [
        {
          "internalType": "bytes32",
          "name": "role",
          "type": "bytes32"
        }
      ],
      "name": "getRoleAdmin",
      "outputs": [
        {
          "internalType": "bytes32",
          "name": "",
          "type": "bytes32"
        }
      ],
      "stateMutability": "view",
      "type": "function"
    },
    {
      "inputs": [
        {
          "internalType": "bytes32",
          "name": "role",
          "type": "bytes32"
        },
        {
          "internalType": "address",
          "name": "account",
          "type": "address"
        }
      ],
      "name": "grantRole",
      "outputs": [],
      "stateMutability": "nonpayable",
      "type": "function"
    },
    {
      "inputs": [
        {
          "internalType": "bytes32",
          "name": "role",
          "type": "bytes32"
        },
        {
          "internalType": "address",
          "name": "account",
          "type": "address"
        }
      ],
      "name": "hasRole",
      "outputs": [
        {
          "internalType": "bool",
          "name": "",
          "type": "bool"
        }
      ],
      "stateMutability": "view",
      "type": "function"
    },
    {
      "inputs": [
        {
          "internalType": "address",
          "name": "spender",
          "type": "address"
        },
        {
          "internalType": "uint256",
          "name": "addedValue",
          "type": "uint256"
        }
      ],
      "name": "increaseAllowance",
      "outputs": [
        {
          "internalType": "bool",
          "name": "",
          "type": "bool"
        }
      ],
      "stateMutability": "nonpayable",
      "type": "function"
    },
    {
      "inputs": [],
      "name": "initialize",
      "outputs": [],
      "stateMutability": "nonpayable",
      "type": "function"
    },
    {
      "inputs": [
        {
          "internalType": "address",
          "name": "to",
          "type": "address"
        },
        {
          "internalType": "uint256",
          "name": "amount",
          "type": "uint256"
        }
      ],
      "name": "mint",
      "outputs": [],
      "stateMutability": "nonpayable",
      "type": "function"
    },
    {
      "inputs": [],
      "name": "name",
      "outputs": [
        {
          "internalType": "string",
          "name": "",
          "type": "string"
        }
      ],
      "stateMutability": "view",
      "type": "function"
    },
    {
      "inputs": [],
      "name": "pause",
      "outputs": [],
      "stateMutability": "nonpayable",
      "type": "function"
    },
    {
      "inputs": [],
      "name": "paused",
      "outputs": [
        {
          "internalType": "bool",
          "name": "",
          "type": "bool"
        }
      ],
      "stateMutability": "view",
      "type": "function"
    },
    {
      "inputs": [],
      "name": "proxiableUUID",
      "outputs": [
        {
          "internalType": "bytes32",
          "name": "",
          "type": "bytes32"
        }
      ],
      "stateMutability": "view",
      "type": "function"
    },
    {
      "inputs": [
        {
          "internalType": "bytes32",
          "name": "role",
          "type": "bytes32"
        },
        {
          "internalType": "address",
          "name": "account",
          "type": "address"
        }
      ],
      "name": "renounceRole",
      "outputs": [],
      "stateMutability": "nonpayable",
      "type": "function"
    },
    {
      "inputs": [
        {
          "internalType": "address",
          "name": "_address",
          "type": "address"
        }
      ],
      "name": "revokeMinterRole",
      "outputs": [],
      "stateMutability": "nonpayable",
      "type": "function"
    },
    {
      "inputs": [
        {
          "internalType": "bytes32",
          "name": "role",
          "type": "bytes32"
        },
        {
          "internalType": "address",
          "name": "account",
          "type": "address"
        }
      ],
      "name": "revokeRole",
      "outputs": [],
      "stateMutability": "nonpayable",
      "type": "function"
    },
    {
      "inputs": [
        {
          "internalType": "bytes4",
          "name": "interfaceId",
          "type": "bytes4"
        }
      ],
      "name": "supportsInterface",
      "outputs": [
        {
          "internalType": "bool",
          "name": "",
          "type": "bool"
        }
      ],
      "stateMutability": "view",
      "type": "function"
    },
    {
      "inputs": [],
      "name": "symbol",
      "outputs": [
        {
          "internalType": "string",
          "name": "",
          "type": "string"
        }
      ],
      "stateMutability": "view",
      "type": "function"
    },
    {
      "inputs": [],
      "name": "totalSupply",
      "outputs": [
        {
          "internalType": "uint256",
          "name": "",
          "type": "uint256"
        }
      ],
      "stateMutability": "view",
      "type": "function"
    },
    {
      "inputs": [
        {
          "internalType": "address",
          "name": "to",
          "type": "address"
        },
        {
          "internalType": "uint256",
          "name": "amount",
          "type": "uint256"
        }
      ],
      "name": "transfer",
      "outputs": [
        {
          "internalType": "bool",
          "name": "",
          "type": "bool"
        }
      ],
      "stateMutability": "nonpayable",
      "type": "function"
    },
    {
      "inputs": [
        {
          "internalType": "address",
          "name": "from",
          "type": "address"
        },
        {
          "internalType": "address",
          "name": "to",
          "type": "address"
        },
        {
          "internalType": "uint256",
          "name": "amount",
          "type": "uint256"
        }
      ],
      "name": "transferFrom",
      "outputs": [
        {
          "internalType": "bool",
          "name": "",
          "type": "bool"
        }
      ],
      "stateMutability": "nonpayable",
      "type": "function"
    },
    {
      "inputs": [],
      "name": "unpause",
      "outputs": [],
      "stateMutability": "nonpayable",
      "type": "function"
    },
    {
      "inputs": [
        {
          "internalType": "address",
          "name": "newImplementation",
          "type": "address"
        }
      ],
      "name": "upgradeTo",
      "outputs": [],
      "stateMutability": "nonpayable",
      "type": "function"
    },
    {
      "inputs": [
        {
          "internalType": "address",
          "name": "newImplementation",
          "type": "address"
        },
        {
          "internalType": "bytes",
          "name": "data",
          "type": "bytes"
        }
      ],
      "name": "upgradeToAndCall",
      "outputs": [],
      "stateMutability": "payable",
      "type": "function"
    }
  ],
  "bytecode": "0x60a06040523073ffffffffffffffffffffffffffffffffffffffff1660809073ffffffffffffffffffffffffffffffffffffffff168152503480156200004457600080fd5b50620000556200005b60201b60201c565b62000205565b600060019054906101000a900460ff1615620000ae576040517f08c379a0000000000000000000000000000000000000000000000000000000008152600401620000a590620001a8565b60405180910390fd5b60ff801660008054906101000a900460ff1660ff16146200011f5760ff6000806101000a81548160ff021916908360ff1602179055507f7f26b83ff96e1f2b6a682f133852f6798a09c465da95921460cefb384740249860ff604051620001169190620001e8565b60405180910390a15b565b600082825260208201905092915050565b7f496e697469616c697a61626c653a20636f6e747261637420697320696e69746960008201527f616c697a696e6700000000000000000000000000000000000000000000000000602082015250565b60006200019060278362000121565b91506200019d8262000132565b604082019050919050565b60006020820190508181036000830152620001c38162000181565b9050919050565b600060ff82169050919050565b620001e281620001ca565b82525050565b6000602082019050620001ff6000830184620001d7565b92915050565b6080516140266200023d600039600081816109a401528181610a3201528181610bd901528181610c670152610d1701526140266000f3fe6080604052600436106101d85760003560e01c80635c975abb11610102578063a457c2d711610095578063d547741f11610064578063d547741f146106b1578063dd62ed3e146106da578063e63ab1e914610717578063f72c0d8b14610742576101d8565b8063a457c2d7146105e3578063a9059cbb14610620578063adbf37761461065d578063d539139314610686576101d8565b80638456cb59116100d15780638456cb591461053957806391d148541461055057806395d89b411461058d578063a217fddf146105b8576101d8565b80635c975abb1461049157806369e2f0fb146104bc57806370a08231146104e55780638129fc1c14610522576101d8565b8063313ce5671161017a5780633f4ba83a116101495780633f4ba83a1461040a57806340c10f19146104215780634f1ef2861461044a57806352d1902d14610466576101d8565b8063313ce5671461035057806336568abe1461037b5780633659cfe6146103a457806339509351146103cd576101d8565b806318160ddd116101b657806318160ddd1461028257806323b872dd146102ad578063248a9ca3146102ea5780632f2ff15d14610327576101d8565b806301ffc9a7146101dd57806306fdde031461021a578063095ea7b314610245575b600080fd5b3480156101e957600080fd5b5061020460048036038101906101ff91906128b0565b61076d565b60405161021191906128f8565b60405180910390f35b34801561022657600080fd5b5061022f6107e7565b60405161023c91906129a3565b60405180910390f35b34801561025157600080fd5b5061026c60048036038101906102679190612a59565b610879565b60405161027991906128f8565b60405180910390f35b34801561028e57600080fd5b5061029761089c565b6040516102a49190612aa8565b60405180910390f35b3480156102b957600080fd5b506102d460048036038101906102cf9190612ac3565b6108a6565b6040516102e191906128f8565b60405180910390f35b3480156102f657600080fd5b50610311600480360381019061030c9190612b4c565b6108d5565b60405161031e9190612b88565b60405180910390f35b34801561033357600080fd5b5061034e60048036038101906103499190612ba3565b6108f5565b005b34801561035c57600080fd5b50610365610916565b6040516103729190612bff565b60405180910390f35b34801561038757600080fd5b506103a2600480360381019061039d9190612ba3565b61091f565b005b3480156103b057600080fd5b506103cb60048036038101906103c69190612c1a565b6109a2565b005b3480156103d957600080fd5b506103f460048036038101906103ef9190612a59565b610b2a565b60405161040191906128f8565b60405180910390f35b34801561041657600080fd5b5061041f610b61565b005b34801561042d57600080fd5b5061044860048036038101906104439190612a59565b610b96565b005b610464600480360381019061045f9190612d7c565b610bd7565b005b34801561047257600080fd5b5061047b610d13565b6040516104889190612b88565b60405180910390f35b34801561049d57600080fd5b506104a6610dcc565b6040516104b391906128f8565b60405180910390f35b3480156104c857600080fd5b506104e360048036038101906104de9190612c1a565b610de3565b005b3480156104f157600080fd5b5061050c60048036038101906105079190612c1a565b610e3b565b6040516105199190612aa8565b60405180910390f35b34801561052e57600080fd5b50610537610e84565b005b34801561054557600080fd5b5061054e6110d1565b005b34801561055c57600080fd5b5061057760048036038101906105729190612ba3565b611106565b60405161058491906128f8565b60405180910390f35b34801561059957600080fd5b506105a2611171565b6040516105af91906129a3565b60405180910390f35b3480156105c457600080fd5b506105cd611203565b6040516105da9190612b88565b60405180910390f35b3480156105ef57600080fd5b5061060a60048036038101906106059190612a59565b61120a565b60405161061791906128f8565b60405180910390f35b34801561062c57600080fd5b5061064760048036038101906106429190612a59565b611281565b60405161065491906128f8565b60405180910390f35b34801561066957600080fd5b50610684600480360381019061067f9190612c1a565b6112a4565b005b34801561069257600080fd5b5061069b6112fc565b6040516106a89190612b88565b60405180910390f35b3480156106bd57600080fd5b506106d860048036038101906106d39190612ba3565b611320565b005b3480156106e657600080fd5b5061070160048036038101906106fc9190612dd8565b611341565b60405161070e9190612aa8565b60405180910390f35b34801561072357600080fd5b5061072c6113c8565b6040516107399190612b88565b60405180910390f35b34801561074e57600080fd5b506107576113ec565b6040516107649190612b88565b60405180910390f35b60007f7965db0b000000000000000000000000000000000000000000000000000000007bffffffffffffffffffffffffffffffffffffffffffffffffffffffff1916827bffffffffffffffffffffffffffffffffffffffffffffffffffffffff191614806107e057506107df82611410565b5b9050919050565b6060603680546107f690612e47565b80601f016020809104026020016040519081016040528092919081815260200182805461082290612e47565b801561086f5780601f106108445761010080835404028352916020019161086f565b820191906000526020600020905b81548152906001019060200180831161085257829003601f168201915b5050505050905090565b60008061088461147a565b9050610891818585611482565b600191505092915050565b6000603554905090565b6000806108b161147a565b90506108be85828561164b565b6108c98585856116d7565b60019150509392505050565b600060fb6000838152602001908152602001600020600101549050919050565b6108fe826108d5565b61090781611950565b6109118383611964565b505050565b60006012905090565b61092761147a565b73ffffffffffffffffffffffffffffffffffffffff168173ffffffffffffffffffffffffffffffffffffffff1614610994576040517f08c379a000000000000000000000000000000000000000000000000000000000815260040161098b90612eea565b60405180910390fd5b61099e8282611a45565b5050565b7f000000000000000000000000000000000000000000000000000000000000000073ffffffffffffffffffffffffffffffffffffffff163073ffffffffffffffffffffffffffffffffffffffff1603610a30576040517f08c379a0000000000000000000000000000000000000000000000000000000008152600401610a2790612f7c565b60405180910390fd5b7f000000000000000000000000000000000000000000000000000000000000000073ffffffffffffffffffffffffffffffffffffffff16610a6f611b27565b73ffffffffffffffffffffffffffffffffffffffff1614610ac5576040517f08c379a0000000000000000000000000000000000000000000000000000000008152600401610abc9061300e565b60405180910390fd5b610ace81611b7e565b610b2781600067ffffffffffffffff811115610aed57610aec612c51565b5b6040519080825280601f01601f191660200182016040528015610b1f5781602001600182028036833780820191505090505b506000611bac565b50565b600080610b3561147a565b9050610b56818585610b478589611341565b610b51919061305d565b611482565b600191505092915050565b7f65d7a28e3265b37a6474929f336521b332c1681b933f6cb9f3376673440d862a610b8b81611950565b610b93611d1a565b50565b7f9f2df0fed2c77648de5860a4cc508cd0818c85b8b8a1ab4ceeef8d981c8956a6610bc081611950565b610bc8611d7d565b610bd28383611dc7565b505050565b7f000000000000000000000000000000000000000000000000000000000000000073ffffffffffffffffffffffffffffffffffffffff163073ffffffffffffffffffffffffffffffffffffffff1603610c65576040517f08c379a0000000000000000000000000000000000000000000000000000000008152600401610c5c90612f7c565b60405180910390fd5b7f000000000000000000000000000000000000000000000000000000000000000073ffffffffffffffffffffffffffffffffffffffff16610ca4611b27565b73ffffffffffffffffffffffffffffffffffffffff1614610cfa576040517f08c379a0000000000000000000000000000000000000000000000000000000008152600401610cf19061300e565b60405180910390fd5b610d0382611b7e565b610d0f82826001611bac565b5050565b60007f000000000000000000000000000000000000000000000000000000000000000073ffffffffffffffffffffffffffffffffffffffff163073ffffffffffffffffffffffffffffffffffffffff1614610da3576040517f08c379a0000000000000000000000000000000000000000000000000000000008152600401610d9a90613103565b60405180910390fd5b7f360894a13ba1a3210667c828492db98dca3e2076cc3735a920a3ca505d382bbc60001b905090565b6000606560009054906101000a900460ff16905090565b7f189ab7a9244df0848122154315af71fe140f3db0fe014031783b0946b8c9d2e3610e0d81611950565b610e377f9f2df0fed2c77648de5860a4cc508cd0818c85b8b8a1ab4ceeef8d981c8956a683611a45565b5050565b6000603360008373ffffffffffffffffffffffffffffffffffffffff1673ffffffffffffffffffffffffffffffffffffffff168152602001908152602001600020549050919050565b60008060019054906101000a900460ff16159050808015610eb55750600160008054906101000a900460ff1660ff16105b80610ee25750610ec430611f1e565b158015610ee15750600160008054906101000a900460ff1660ff16145b5b610f21576040517f08c379a0000000000000000000000000000000000000000000000000000000008152600401610f1890613195565b60405180910390fd5b60016000806101000a81548160ff021916908360ff1602179055508015610f5e576001600060016101000a81548160ff0219169083151502179055505b610fd26040518060400160405280600781526020017f4c6f744c6f6f74000000000000000000000000000000000000000000000000008152506040518060400160405280600381526020017f4c4c540000000000000000000000000000000000000000000000000000000000815250611f41565b610fda611f9e565b610fe2611ff7565b610fea612048565b610ff76000801b33611964565b6110217f65d7a28e3265b37a6474929f336521b332c1681b933f6cb9f3376673440d862a33611964565b61104b7f9f2df0fed2c77648de5860a4cc508cd0818c85b8b8a1ab4ceeef8d981c8956a633611964565b6110757f189ab7a9244df0848122154315af71fe140f3db0fe014031783b0946b8c9d2e333611964565b80156110ce5760008060016101000a81548160ff0219169083151502179055507f7f26b83ff96e1f2b6a682f133852f6798a09c465da95921460cefb384740249860016040516110c591906131fa565b60405180910390a15b50565b7f65d7a28e3265b37a6474929f336521b332c1681b933f6cb9f3376673440d862a6110fb81611950565b611103612099565b50565b600060fb600084815260200190815260200160002060000160008373ffffffffffffffffffffffffffffffffffffffff1673ffffffffffffffffffffffffffffffffffffffff16815260200190815260200160002060009054906101000a900460ff16905092915050565b60606037805461118090612e47565b80601f01602080910402602001604051908101604052809291908181526020018280546111ac90612e47565b80156111f95780601f106111ce576101008083540402835291602001916111f9565b820191906000526020600020905b8154815290600101906020018083116111dc57829003601f168201915b5050505050905090565b6000801b81565b60008061121561147a565b905060006112238286611341565b905083811015611268576040517f08c379a000000000000000000000000000000000000000000000000000000000815260040161125f90613287565b60405180910390fd5b6112758286868403611482565b60019250505092915050565b60008061128c61147a565b90506112998185856116d7565b600191505092915050565b7f189ab7a9244df0848122154315af71fe140f3db0fe014031783b0946b8c9d2e36112ce81611950565b6112f87f9f2df0fed2c77648de5860a4cc508cd0818c85b8b8a1ab4ceeef8d981c8956a683611964565b5050565b7f9f2df0fed2c77648de5860a4cc508cd0818c85b8b8a1ab4ceeef8d981c8956a681565b611329826108d5565b61133281611950565b61133c8383611a45565b505050565b6000603460008473ffffffffffffffffffffffffffffffffffffffff1673ffffffffffffffffffffffffffffffffffffffff16815260200190815260200160002060008373ffffffffffffffffffffffffffffffffffffffff1673ffffffffffffffffffffffffffffffffffffffff16815260200190815260200160002054905092915050565b7f65d7a28e3265b37a6474929f336521b332c1681b933f6cb9f3376673440d862a81565b7f189ab7a9244df0848122154315af71fe140f3db0fe014031783b0946b8c9d2e381565b60007f01ffc9a7000000000000000000000000000000000000000000000000000000007bffffffffffffffffffffffffffffffffffffffffffffffffffffffff1916827bffffffffffffffffffffffffffffffffffffffffffffffffffffffff1916149050919050565b600033905090565b600073ffffffffffffffffffffffffffffffffffffffff168373ffffffffffffffffffffffffffffffffffffffff16036114f1576040517f08c379a00000000000000000000000000000000000000000000000000000000081526004016114e890613319565b60405180910390fd5b600073ffffffffffffffffffffffffffffffffffffffff168273ffffffffffffffffffffffffffffffffffffffff1603611560576040517f08c379a0000000000000000000000000000000000000000000000000000000008152600401611557906133ab565b60405180910390fd5b80603460008573ffffffffffffffffffffffffffffffffffffffff1673ffffffffffffffffffffffffffffffffffffffff16815260200190815260200160002060008473ffffffffffffffffffffffffffffffffffffffff1673ffffffffffffffffffffffffffffffffffffffff168152602001908152602001600020819055508173ffffffffffffffffffffffffffffffffffffffff168373ffffffffffffffffffffffffffffffffffffffff167f8c5be1e5ebec7d5bd14f71427d1e84f3dd0314c0f7b2291e5b200ac8c7c3b9258360405161163e9190612aa8565b60405180910390a3505050565b60006116578484611341565b90507fffffffffffffffffffffffffffffffffffffffffffffffffffffffffffffffff81146116d157818110156116c3576040517f08c379a00000000000000000000000000000000000000000000000000000000081526004016116ba90613417565b60405180910390fd5b6116d08484848403611482565b5b50505050565b600073ffffffffffffffffffffffffffffffffffffffff168373ffffffffffffffffffffffffffffffffffffffff1603611746576040517f08c379a000000000000000000000000000000000000000000000000000000000815260040161173d906134a9565b60405180910390fd5b600073ffffffffffffffffffffffffffffffffffffffff168273ffffffffffffffffffffffffffffffffffffffff16036117b5576040517f08c379a00000000000000000000000000000000000000000000000000000000081526004016117ac9061353b565b60405180910390fd5b6117c08383836120fc565b6000603360008573ffffffffffffffffffffffffffffffffffffffff1673ffffffffffffffffffffffffffffffffffffffff16815260200190815260200160002054905081811015611847576040517f08c379a000000000000000000000000000000000000000000000000000000000815260040161183e906135cd565b60405180910390fd5b818103603360008673ffffffffffffffffffffffffffffffffffffffff1673ffffffffffffffffffffffffffffffffffffffff1681526020019081526020016000208190555081603360008573ffffffffffffffffffffffffffffffffffffffff1673ffffffffffffffffffffffffffffffffffffffff168152602001908152602001600020600082825401925050819055508273ffffffffffffffffffffffffffffffffffffffff168473ffffffffffffffffffffffffffffffffffffffff167fddf252ad1be2c89b69c2b068fc378daa952ba7f163c4a11628f55a4df523b3ef846040516119379190612aa8565b60405180910390a361194a84848461210c565b50505050565b6119618161195c61147a565b612111565b50565b61196e8282611106565b611a4157600160fb600084815260200190815260200160002060000160008373ffffffffffffffffffffffffffffffffffffffff1673ffffffffffffffffffffffffffffffffffffffff16815260200190815260200160002060006101000a81548160ff0219169083151502179055506119e661147a565b73ffffffffffffffffffffffffffffffffffffffff168173ffffffffffffffffffffffffffffffffffffffff16837f2f8788117e7eff1d82e926ec794901d17c78024a50270940304540a733656f0d60405160405180910390a45b5050565b611a4f8282611106565b15611b2357600060fb600084815260200190815260200160002060000160008373ffffffffffffffffffffffffffffffffffffffff1673ffffffffffffffffffffffffffffffffffffffff16815260200190815260200160002060006101000a81548160ff021916908315150217905550611ac861147a565b73ffffffffffffffffffffffffffffffffffffffff168173ffffffffffffffffffffffffffffffffffffffff16837ff6391f5c32d9c69d2a47ea670b442974b53935d1edc7fd64eb21e047a839171b60405160405180910390a45b5050565b6000611b557f360894a13ba1a3210667c828492db98dca3e2076cc3735a920a3ca505d382bbc60001b612196565b60000160009054906101000a900473ffffffffffffffffffffffffffffffffffffffff16905090565b7f189ab7a9244df0848122154315af71fe140f3db0fe014031783b0946b8c9d2e3611ba881611950565b5050565b611bd87f4910fdfa16fed3260ed0e7147f7cc6da11a60208b5b9406d12a635614ffd914360001b6121a0565b60000160009054906101000a900460ff1615611bfc57611bf7836121aa565b611d15565b8273ffffffffffffffffffffffffffffffffffffffff166352d1902d6040518163ffffffff1660e01b8152600401602060405180830381865afa925050508015611c6457506040513d601f19601f82011682018060405250810190611c619190613602565b60015b611ca3576040517f08c379a0000000000000000000000000000000000000000000000000000000008152600401611c9a906136a1565b60405180910390fd5b7f360894a13ba1a3210667c828492db98dca3e2076cc3735a920a3ca505d382bbc60001b8114611d08576040517f08c379a0000000000000000000000000000000000000000000000000000000008152600401611cff90613733565b60405180910390fd5b50611d14838383612263565b5b505050565b611d2261228f565b6000606560006101000a81548160ff0219169083151502179055507f5db9ee0a495bf2e6ff9c91a7834c1ba4fdd244a5e8aa4e537bd38aeae4b073aa611d6661147a565b604051611d739190613762565b60405180910390a1565b611d85610dcc565b15611dc5576040517f08c379a0000000000000000000000000000000000000000000000000000000008152600401611dbc906137c9565b60405180910390fd5b565b600073ffffffffffffffffffffffffffffffffffffffff168273ffffffffffffffffffffffffffffffffffffffff1603611e36576040517f08c379a0000000000000000000000000000000000000000000000000000000008152600401611e2d90613835565b60405180910390fd5b611e42600083836120fc565b8060356000828254611e54919061305d565b9250508190555080603360008473ffffffffffffffffffffffffffffffffffffffff1673ffffffffffffffffffffffffffffffffffffffff168152602001908152602001600020600082825401925050819055508173ffffffffffffffffffffffffffffffffffffffff16600073ffffffffffffffffffffffffffffffffffffffff167fddf252ad1be2c89b69c2b068fc378daa952ba7f163c4a11628f55a4df523b3ef83604051611f069190612aa8565b60405180910390a3611f1a6000838361210c565b5050565b6000808273ffffffffffffffffffffffffffffffffffffffff163b119050919050565b600060019054906101000a900460ff16611f90576040517f08c379a0000000000000000000000000000000000000000000000000000000008152600401611f87906138c7565b60405180910390fd5b611f9a82826122d8565b5050565b600060019054906101000a900460ff16611fed576040517f08c379a0000000000000000000000000000000000000000000000000000000008152600401611fe4906138c7565b60405180910390fd5b611ff561234b565b565b600060019054906101000a900460ff16612046576040517f08c379a000000000000000000000000000000000000000000000000000000000815260040161203d906138c7565b60405180910390fd5b565b600060019054906101000a900460ff16612097576040517f08c379a000000000000000000000000000000000000000000000000000000000815260040161208e906138c7565b60405180910390fd5b565b6120a1611d7d565b6001606560006101000a81548160ff0219169083151502179055507f62e78cea01bee320cd4e420270b5ea74000d11b0c9f74754ebdbfc544b05a2586120e561147a565b6040516120f29190613762565b60405180910390a1565b6121078383836123b7565b505050565b505050565b61211b8282611106565b612192576121288161240f565b6121368360001c602061243c565b6040516020016121479291906139bb565b6040516020818303038152906040526040517f08c379a000000000000000000000000000000000000000000000000000000000815260040161218991906129a3565b60405180910390fd5b5050565b6000819050919050565b6000819050919050565b6121b381611f1e565b6121f2576040517f08c379a00000000000000000000000000000000000000000000000000000000081526004016121e990613a67565b60405180910390fd5b8061221f7f360894a13ba1a3210667c828492db98dca3e2076cc3735a920a3ca505d382bbc60001b612196565b60000160006101000a81548173ffffffffffffffffffffffffffffffffffffffff021916908373ffffffffffffffffffffffffffffffffffffffff16021790555050565b61226c83612678565b6000825111806122795750805b1561228a5761228883836126c7565b505b505050565b612297610dcc565b6122d6576040517f08c379a00000000000000000000000000000000000000000000000000000000081526004016122cd90613ad3565b60405180910390fd5b565b600060019054906101000a900460ff16612327576040517f08c379a000000000000000000000000000000000000000000000000000000000815260040161231e906138c7565b60405180910390fd5b81603690816123369190613c95565b5080603790816123469190613c95565b505050565b600060019054906101000a900460ff1661239a576040517f08c379a0000000000000000000000000000000000000000000000000000000008152600401612391906138c7565b60405180910390fd5b6000606560006101000a81548160ff021916908315150217905550565b6123c28383836126f4565b6123ca610dcc565b1561240a576040517f08c379a000000000000000000000000000000000000000000000000000000000815260040161240190613dd9565b60405180910390fd5b505050565b60606124358273ffffffffffffffffffffffffffffffffffffffff16601460ff1661243c565b9050919050565b60606000600283600261244f9190613df9565b612459919061305d565b67ffffffffffffffff81111561247257612471612c51565b5b6040519080825280601f01601f1916602001820160405280156124a45781602001600182028036833780820191505090505b5090507f3000000000000000000000000000000000000000000000000000000000000000816000815181106124dc576124db613e3b565b5b60200101907effffffffffffffffffffffffffffffffffffffffffffffffffffffffffffff1916908160001a9053507f7800000000000000000000000000000000000000000000000000000000000000816001815181106125405761253f613e3b565b5b60200101907effffffffffffffffffffffffffffffffffffffffffffffffffffffffffffff1916908160001a905350600060018460026125809190613df9565b61258a919061305d565b90505b600181111561262a577f3031323334353637383961626364656600000000000000000000000000000000600f8616601081106125cc576125cb613e3b565b5b1a60f81b8282815181106125e3576125e2613e3b565b5b60200101907effffffffffffffffffffffffffffffffffffffffffffffffffffffffffffff1916908160001a905350600485901c94508061262390613e6a565b905061258d565b506000841461266e576040517f08c379a000000000000000000000000000000000000000000000000000000000815260040161266590613edf565b60405180910390fd5b8091505092915050565b612681816121aa565b8073ffffffffffffffffffffffffffffffffffffffff167fbc7cd75a20ee27fd9adebab32041f755214dbc6bffa90cc0225b39da2e5c2d3b60405160405180910390a250565b60606126ec8383604051806060016040528060278152602001613fca602791396126f9565b905092915050565b505050565b60606000808573ffffffffffffffffffffffffffffffffffffffff16856040516127239190613f46565b600060405180830381855af49150503d806000811461275e576040519150601f19603f3d011682016040523d82523d6000602084013e612763565b606091505b50915091506127748683838761277f565b925050509392505050565b606083156127e15760008351036127d95761279985611f1e565b6127d8576040517f08c379a00000000000000000000000000000000000000000000000000000000081526004016127cf90613fa9565b60405180910390fd5b5b8290506127ec565b6127eb83836127f4565b5b949350505050565b6000825111156128075781518083602001fd5b806040517f08c379a000000000000000000000000000000000000000000000000000000000815260040161283b91906129a3565b60405180910390fd5b6000604051905090565b600080fd5b600080fd5b60007fffffffff0000000000000000000000000000000000000000000000000000000082169050919050565b61288d81612858565b811461289857600080fd5b50565b6000813590506128aa81612884565b92915050565b6000602082840312156128c6576128c561284e565b5b60006128d48482850161289b565b91505092915050565b60008115159050919050565b6128f2816128dd565b82525050565b600060208201905061290d60008301846128e9565b92915050565b600081519050919050565b600082825260208201905092915050565b60005b8381101561294d578082015181840152602081019050612932565b60008484015250505050565b6000601f19601f8301169050919050565b600061297582612913565b61297f818561291e565b935061298f81856020860161292f565b61299881612959565b840191505092915050565b600060208201905081810360008301526129bd818461296a565b905092915050565b600073ffffffffffffffffffffffffffffffffffffffff82169050919050565b60006129f0826129c5565b9050919050565b612a00816129e5565b8114612a0b57600080fd5b50565b600081359050612a1d816129f7565b92915050565b6000819050919050565b612a3681612a23565b8114612a4157600080fd5b50565b600081359050612a5381612a2d565b92915050565b60008060408385031215612a7057612a6f61284e565b5b6000612a7e85828601612a0e565b9250506020612a8f85828601612a44565b9150509250929050565b612aa281612a23565b82525050565b6000602082019050612abd6000830184612a99565b92915050565b600080600060608486031215612adc57612adb61284e565b5b6000612aea86828701612a0e565b9350506020612afb86828701612a0e565b9250506040612b0c86828701612a44565b9150509250925092565b6000819050919050565b612b2981612b16565b8114612b3457600080fd5b50565b600081359050612b4681612b20565b92915050565b600060208284031215612b6257612b6161284e565b5b6000612b7084828501612b37565b91505092915050565b612b8281612b16565b82525050565b6000602082019050612b9d6000830184612b79565b92915050565b60008060408385031215612bba57612bb961284e565b5b6000612bc885828601612b37565b9250506020612bd985828601612a0e565b9150509250929050565b600060ff82169050919050565b612bf981612be3565b82525050565b6000602082019050612c146000830184612bf0565b92915050565b600060208284031215612c3057612c2f61284e565b5b6000612c3e84828501612a0e565b91505092915050565b600080fd5b600080fd5b7f4e487b7100000000000000000000000000000000000000000000000000000000600052604160045260246000fd5b612c8982612959565b810181811067ffffffffffffffff82111715612ca857612ca7612c51565b5b80604052505050565b6000612cbb612844565b9050612cc78282612c80565b919050565b600067ffffffffffffffff821115612ce757612ce6612c51565b5b612cf082612959565b9050602081019050919050565b82818337600083830152505050565b6000612d1f612d1a84612ccc565b612cb1565b905082815260208101848484011115612d3b57612d3a612c4c565b5b612d46848285612cfd565b509392505050565b600082601f830112612d6357612d62612c47565b5b8135612d73848260208601612d0c565b91505092915050565b60008060408385031215612d9357612d9261284e565b5b6000612da185828601612a0e565b925050602083013567ffffffffffffffff811115612dc257612dc1612853565b5b612dce85828601612d4e565b9150509250929050565b60008060408385031215612def57612dee61284e565b5b6000612dfd85828601612a0e565b9250506020612e0e85828601612a0e565b9150509250929050565b7f4e487b7100000000000000000000000000000000000000000000000000000000600052602260045260246000fd5b60006002820490506001821680612e5f57607f821691505b602082108103612e7257612e71612e18565b5b50919050565b7f416363657373436f6e74726f6c3a2063616e206f6e6c792072656e6f756e636560008201527f20726f6c657320666f722073656c660000000000000000000000000000000000602082015250565b6000612ed4602f8361291e565b9150612edf82612e78565b604082019050919050565b60006020820190508181036000830152612f0381612ec7565b9050919050565b7f46756e6374696f6e206d7573742062652063616c6c6564207468726f7567682060008201527f64656c656761746563616c6c0000000000000000000000000000000000000000602082015250565b6000612f66602c8361291e565b9150612f7182612f0a565b604082019050919050565b60006020820190508181036000830152612f9581612f59565b9050919050565b7f46756e6374696f6e206d7573742062652063616c6c6564207468726f7567682060008201527f6163746976652070726f78790000000000000000000000000000000000000000602082015250565b6000612ff8602c8361291e565b915061300382612f9c565b604082019050919050565b6000602082019050818103600083015261302781612feb565b9050919050565b7f4e487b7100000000000000000000000000000000000000000000000000000000600052601160045260246000fd5b600061306882612a23565b915061307383612a23565b925082820190508082111561308b5761308a61302e565b5b92915050565b7f555550535570677261646561626c653a206d757374206e6f742062652063616c60008201527f6c6564207468726f7567682064656c656761746563616c6c0000000000000000602082015250565b60006130ed60388361291e565b91506130f882613091565b604082019050919050565b6000602082019050818103600083015261311c816130e0565b9050919050565b7f496e697469616c697a61626c653a20636f6e747261637420697320616c72656160008201527f647920696e697469616c697a6564000000000000000000000000000000000000602082015250565b600061317f602e8361291e565b915061318a82613123565b604082019050919050565b600060208201905081810360008301526131ae81613172565b9050919050565b6000819050919050565b6000819050919050565b60006131e46131df6131da846131b5565b6131bf565b612be3565b9050919050565b6131f4816131c9565b82525050565b600060208201905061320f60008301846131eb565b92915050565b7f45524332303a2064656372656173656420616c6c6f77616e63652062656c6f7760008201527f207a65726f000000000000000000000000000000000000000000000000000000602082015250565b600061327160258361291e565b915061327c82613215565b604082019050919050565b600060208201905081810360008301526132a081613264565b9050919050565b7f45524332303a20617070726f76652066726f6d20746865207a65726f2061646460008201527f7265737300000000000000000000000000000000000000000000000000000000602082015250565b600061330360248361291e565b915061330e826132a7565b604082019050919050565b60006020820190508181036000830152613332816132f6565b9050919050565b7f45524332303a20617070726f766520746f20746865207a65726f20616464726560008201527f7373000000000000000000000000000000000000000000000000000000000000602082015250565b600061339560228361291e565b91506133a082613339565b604082019050919050565b600060208201905081810360008301526133c481613388565b9050919050565b7f45524332303a20696e73756666696369656e7420616c6c6f77616e6365000000600082015250565b6000613401601d8361291e565b915061340c826133cb565b602082019050919050565b60006020820190508181036000830152613430816133f4565b9050919050565b7f45524332303a207472616e736665722066726f6d20746865207a65726f20616460008201527f6472657373000000000000000000000000000000000000000000000000000000602082015250565b600061349360258361291e565b915061349e82613437565b604082019050919050565b600060208201905081810360008301526134c281613486565b9050919050565b7f45524332303a207472616e7366657220746f20746865207a65726f206164647260008201527f6573730000000000000000000000000000000000000000000000000000000000602082015250565b600061352560238361291e565b9150613530826134c9565b604082019050919050565b6000602082019050818103600083015261355481613518565b9050919050565b7f45524332303a207472616e7366657220616d6f756e742065786365656473206260008201527f616c616e63650000000000000000000000000000000000000000000000000000602082015250565b60006135b760268361291e565b91506135c28261355b565b604082019050919050565b600060208201905081810360008301526135e6816135aa565b9050919050565b6000815190506135fc81612b20565b92915050565b6000602082840312156136185761361761284e565b5b6000613626848285016135ed565b91505092915050565b7f45524331393637557067726164653a206e657720696d706c656d656e7461746960008201527f6f6e206973206e6f742055555053000000000000000000000000000000000000602082015250565b600061368b602e8361291e565b91506136968261362f565b604082019050919050565b600060208201905081810360008301526136ba8161367e565b9050919050565b7f45524331393637557067726164653a20756e737570706f727465642070726f7860008201527f6961626c65555549440000000000000000000000000000000000000000000000602082015250565b600061371d60298361291e565b9150613728826136c1565b604082019050919050565b6000602082019050818103600083015261374c81613710565b9050919050565b61375c816129e5565b82525050565b60006020820190506137776000830184613753565b92915050565b7f5061757361626c653a2070617573656400000000000000000000000000000000600082015250565b60006137b360108361291e565b91506137be8261377d565b602082019050919050565b600060208201905081810360008301526137e2816137a6565b9050919050565b7f45524332303a206d696e7420746f20746865207a65726f206164647265737300600082015250565b600061381f601f8361291e565b915061382a826137e9565b602082019050919050565b6000602082019050818103600083015261384e81613812565b9050919050565b7f496e697469616c697a61626c653a20636f6e7472616374206973206e6f74206960008201527f6e697469616c697a696e67000000000000000000000000000000000000000000602082015250565b60006138b1602b8361291e565b91506138bc82613855565b604082019050919050565b600060208201905081810360008301526138e0816138a4565b9050919050565b600081905092915050565b7f416363657373436f6e74726f6c3a206163636f756e7420000000000000000000600082015250565b60006139286017836138e7565b9150613933826138f2565b601782019050919050565b600061394982612913565b61395381856138e7565b935061396381856020860161292f565b80840191505092915050565b7f206973206d697373696e6720726f6c6520000000000000000000000000000000600082015250565b60006139a56011836138e7565b91506139b08261396f565b601182019050919050565b60006139c68261391b565b91506139d2828561393e565b91506139dd82613998565b91506139e9828461393e565b91508190509392505050565b7f455243313936373a206e657720696d706c656d656e746174696f6e206973206e60008201527f6f74206120636f6e747261637400000000000000000000000000000000000000602082015250565b6000613a51602d8361291e565b9150613a5c826139f5565b604082019050919050565b60006020820190508181036000830152613a8081613a44565b9050919050565b7f5061757361626c653a206e6f7420706175736564000000000000000000000000600082015250565b6000613abd60148361291e565b9150613ac882613a87565b602082019050919050565b60006020820190508181036000830152613aec81613ab0565b9050919050565b60008190508160005260206000209050919050565b60006020601f8301049050919050565b600082821b905092915050565b600060088302613b557fffffffffffffffffffffffffffffffffffffffffffffffffffffffffffffffff82613b18565b613b5f8683613b18565b95508019841693508086168417925050509392505050565b6000613b92613b8d613b8884612a23565b6131bf565b612a23565b9050919050565b6000819050919050565b613bac83613b77565b613bc0613bb882613b99565b848454613b25565b825550505050565b600090565b613bd5613bc8565b613be0818484613ba3565b505050565b5b81811015613c0457613bf9600082613bcd565b600181019050613be6565b5050565b601f821115613c4957613c1a81613af3565b613c2384613b08565b81016020851015613c32578190505b613c46613c3e85613b08565b830182613be5565b50505b505050565b600082821c905092915050565b6000613c6c60001984600802613c4e565b1980831691505092915050565b6000613c858383613c5b565b9150826002028217905092915050565b613c9e82612913565b67ffffffffffffffff811115613cb757613cb6612c51565b5b613cc18254612e47565b613ccc828285613c08565b600060209050601f831160018114613cff5760008415613ced578287015190505b613cf78582613c79565b865550613d5f565b601f198416613d0d86613af3565b60005b82811015613d3557848901518255600182019150602085019450602081019050613d10565b86831015613d525784890151613d4e601f891682613c5b565b8355505b6001600288020188555050505b505050505050565b7f45524332305061757361626c653a20746f6b656e207472616e7366657220776860008201527f696c652070617573656400000000000000000000000000000000000000000000602082015250565b6000613dc3602a8361291e565b9150613dce82613d67565b604082019050919050565b60006020820190508181036000830152613df281613db6565b9050919050565b6000613e0482612a23565b9150613e0f83612a23565b9250828202613e1d81612a23565b91508282048414831517613e3457613e3361302e565b5b5092915050565b7f4e487b7100000000000000000000000000000000000000000000000000000000600052603260045260246000fd5b6000613e7582612a23565b915060008203613e8857613e8761302e565b5b600182039050919050565b7f537472696e67733a20686578206c656e67746820696e73756666696369656e74600082015250565b6000613ec960208361291e565b9150613ed482613e93565b602082019050919050565b60006020820190508181036000830152613ef881613ebc565b9050919050565b600081519050919050565b600081905092915050565b6000613f2082613eff565b613f2a8185613f0a565b9350613f3a81856020860161292f565b80840191505092915050565b6000613f528284613f15565b915081905092915050565b7f416464726573733a2063616c6c20746f206e6f6e2d636f6e7472616374000000600082015250565b6000613f93601d8361291e565b9150613f9e82613f5d565b602082019050919050565b60006020820190508181036000830152613fc281613f86565b905091905056fe416464726573733a206c6f772d6c6576656c2064656c65676174652063616c6c206661696c6564a26469706673582212205c2a51b8c964b9f2daf6eb5db281b12daaecba3e427b71ef2d1e1fc2e2f7c81a64736f6c63430008140033",
  "linkReferences": {},
  "deployedLinkReferences": {}
}